{
  "_format": "hh-sol-artifact-1",
  "contractName": "Shipment",
  "sourceName": "contracts/Shipment.sol",
  "abi": [
    {
      "inputs": [],
      "stateMutability": "nonpayable",
      "type": "constructor"
    },
    {
      "anonymous": false,
      "inputs": [
        {
          "indexed": true,
          "internalType": "uint256",
          "name": "shipmentId",
          "type": "uint256"
        },
        {
          "indexed": false,
          "internalType": "uint256",
          "name": "timestamp",
          "type": "uint256"
        }
      ],
      "name": "DeliveryConfirmed",
      "type": "event"
    },
    {
      "anonymous": false,
      "inputs": [
        {
          "indexed": true,
          "internalType": "uint256",
          "name": "shipmentId",
          "type": "uint256"
        },
        {
          "indexed": false,
          "internalType": "string",
          "name": "hash",
          "type": "string"
        }
      ],
      "name": "DocumentRegistered",
      "type": "event"
    },
    {
      "anonymous": false,
      "inputs": [
        {
          "indexed": true,
          "internalType": "uint256",
          "name": "shipmentId",
          "type": "uint256"
        }
      ],
      "name": "PaymentApproved",
      "type": "event"
    },
    {
      "inputs": [
        {
          "internalType": "uint256",
          "name": "_shipmentId",
          "type": "uint256"
        }
      ],
      "name": "confirmDelivery",
      "outputs": [],
      "stateMutability": "nonpayable",
      "type": "function"
    },
    {
      "inputs": [
        {
          "internalType": "uint256",
          "name": "",
          "type": "uint256"
        }
      ],
      "name": "documentHashes",
      "outputs": [
        {
          "internalType": "string",
          "name": "",
          "type": "string"
        }
      ],
      "stateMutability": "view",
      "type": "function"
    },
    {
      "inputs": [
        {
          "internalType": "uint256",
          "name": "",
          "type": "uint256"
        }
      ],
      "name": "isDelivered",
      "outputs": [
        {
          "internalType": "bool",
          "name": "",
          "type": "bool"
        }
      ],
      "stateMutability": "view",
      "type": "function"
    },
    {
      "inputs": [
        {
          "internalType": "uint256",
          "name": "",
          "type": "uint256"
        }
      ],
      "name": "isPaid",
      "outputs": [
        {
          "internalType": "bool",
          "name": "",
          "type": "bool"
        }
      ],
      "stateMutability": "view",
      "type": "function"
    },
    {
      "inputs": [],
      "name": "owner",
      "outputs": [
        {
          "internalType": "address",
          "name": "",
          "type": "address"
        }
      ],
      "stateMutability": "view",
      "type": "function"
    },
    {
      "inputs": [
        {
          "internalType": "uint256",
          "name": "_shipmentId",
          "type": "uint256"
        },
        {
          "internalType": "string",
          "name": "_hash",
          "type": "string"
        }
      ],
      "name": "registerDocument",
      "outputs": [],
      "stateMutability": "nonpayable",
      "type": "function"
    }
  ],
  "bytecode": "0x608060405234801561001057600080fd5b50336000806101000a81548173ffffffffffffffffffffffffffffffffffffffff021916908373ffffffffffffffffffffffffffffffffffffffff160217905550610cb5806100606000396000f3fe608060405234801561001057600080fd5b50600436106100625760003560e01c80638da5cb5b146100675780638e383c6b14610085578063cd392a83146100b5578063dcdb69d2146100e5578063e800edc214610115578063fd84cb9714610131575b600080fd5b61006f61014d565b60405161007c9190610594565b60405180910390f35b61009f600480360381019061009a91906105f9565b610171565b6040516100ac91906106b6565b60405180910390f35b6100cf60048036038101906100ca91906105f9565b610211565b6040516100dc91906106f3565b60405180910390f35b6100ff60048036038101906100fa91906105f9565b610231565b60405161010c91906106f3565b60405180910390f35b61012f600480360381019061012a9190610843565b610251565b005b61014b600480360381019061014691906105f9565b6103a7565b005b60008054906101000a900473ffffffffffffffffffffffffffffffffffffffff1681565b60016020528060005260406000206000915090508054610190906108ce565b80601f01602080910402602001604051908101604052809291908181526020018280546101bc906108ce565b80156102095780601f106101de57610100808354040283529160200191610209565b820191906000526020600020905b8154815290600101906020018083116101ec57829003601f168201915b505050505081565b60036020528060005260406000206000915054906101000a900460ff1681565b60026020528060005260406000206000915054906101000a900460ff1681565b60008054906101000a900473ffffffffffffffffffffffffffffffffffffffff1673ffffffffffffffffffffffffffffffffffffffff163373ffffffffffffffffffffffffffffffffffffffff16146102df576040517f08c379a00000000000000000000000000000000000000000000000000000000081526004016102d69061094b565b60405180910390fd5b60006001600084815260200190815260200160002080546102ff906108ce565b905014610341576040517f08c379a0000000000000000000000000000000000000000000000000000000008152600401610338906109b7565b60405180910390fd5b806001600084815260200190815260200160002090816103619190610b83565b50817f12c2302e1652478d436bd77a08d1291707841c6af399bd30168d0033450a17668260405161039291906106b6565b60405180910390a26103a3826104a5565b5050565b60008054906101000a900473ffffffffffffffffffffffffffffffffffffffff1673ffffffffffffffffffffffffffffffffffffffff163373ffffffffffffffffffffffffffffffffffffffff1614610435576040517f08c379a000000000000000000000000000000000000000000000000000000000815260040161042c9061094b565b60405180910390fd5b60016002600083815260200190815260200160002060006101000a81548160ff021916908315150217905550807fbc6a6bc916445fee9e1b8ff89b520458ba8967dd217cc4aa6515f5c430822fe7426040516104919190610c64565b60405180910390a26104a2816104a5565b50565b6002600082815260200190815260200160002060009054906101000a900460ff1680156104f1575060006001600083815260200190815260200160002080546104ed906108ce565b9050115b156105505760016003600083815260200190815260200160002060006101000a81548160ff021916908315150217905550807f2c51b4266e228b7f9c2401e482ed194b99ddaeefb4f7fc40677e6ee59838e35960405160405180910390a25b50565b600073ffffffffffffffffffffffffffffffffffffffff82169050919050565b600061057e82610553565b9050919050565b61058e81610573565b82525050565b60006020820190506105a96000830184610585565b92915050565b6000604051905090565b600080fd5b600080fd5b6000819050919050565b6105d6816105c3565b81146105e157600080fd5b50565b6000813590506105f3816105cd565b92915050565b60006020828403121561060f5761060e6105b9565b5b600061061d848285016105e4565b91505092915050565b600081519050919050565b600082825260208201905092915050565b60005b83811015610660578082015181840152602081019050610645565b60008484015250505050565b6000601f19601f8301169050919050565b600061068882610626565b6106928185610631565b93506106a2818560208601610642565b6106ab8161066c565b840191505092915050565b600060208201905081810360008301526106d0818461067d565b905092915050565b60008115159050919050565b6106ed816106d8565b82525050565b600060208201905061070860008301846106e4565b92915050565b600080fd5b600080fd5b7f4e487b7100000000000000000000000000000000000000000000000000000000600052604160045260246000fd5b6107508261066c565b810181811067ffffffffffffffff8211171561076f5761076e610718565b5b80604052505050565b60006107826105af565b905061078e8282610747565b919050565b600067ffffffffffffffff8211156107ae576107ad610718565b5b6107b78261066c565b9050602081019050919050565b82818337600083830152505050565b60006107e66107e184610793565b610778565b90508281526020810184848401111561080257610801610713565b5b61080d8482856107c4565b509392505050565b600082601f83011261082a5761082961070e565b5b813561083a8482602086016107d3565b91505092915050565b6000806040838503121561085a576108596105b9565b5b6000610868858286016105e4565b925050602083013567ffffffffffffffff811115610889576108886105be565b5b61089585828601610815565b9150509250929050565b7f4e487b7100000000000000000000000000000000000000000000000000000000600052602260045260246000fd5b600060028204905060018216806108e657607f821691505b6020821081036108f9576108f861089f565b5b50919050565b7f556e617574686f72697a65640000000000000000000000000000000000000000600082015250565b6000610935600c83610631565b9150610940826108ff565b602082019050919050565b6000602082019050818103600083015261096481610928565b9050919050565b7f416c726561647920726567697374657265640000000000000000000000000000600082015250565b60006109a1601283610631565b91506109ac8261096b565b602082019050919050565b600060208201905081810360008301526109d081610994565b9050919050565b60008190508160005260206000209050919050565b60006020601f8301049050919050565b600082821b905092915050565b600060088302610a397fffffffffffffffffffffffffffffffffffffffffffffffffffffffffffffffff826109fc565b610a4386836109fc565b95508019841693508086168417925050509392505050565b6000819050919050565b6000610a80610a7b610a76846105c3565b610a5b565b6105c3565b9050919050565b6000819050919050565b610a9a83610a65565b610aae610aa682610a87565b848454610a09565b825550505050565b600090565b610ac3610ab6565b610ace818484610a91565b505050565b5b81811015610af257610ae7600082610abb565b600181019050610ad4565b5050565b601f821115610b3757610b08816109d7565b610b11846109ec565b81016020851015610b20578190505b610b34610b2c856109ec565b830182610ad3565b50505b505050565b600082821c905092915050565b6000610b5a60001984600802610b3c565b1980831691505092915050565b6000610b738383610b49565b9150826002028217905092915050565b610b8c82610626565b67ffffffffffffffff811115610ba557610ba4610718565b5b610baf82546108ce565b610bba828285610af6565b600060209050601f831160018114610bed5760008415610bdb578287015190505b610be58582610b67565b865550610c4d565b601f198416610bfb866109d7565b60005b82811015610c2357848901518255600182019150602085019450602081019050610bfe565b86831015610c405784890151610c3c601f891682610b49565b8355505b6001600288020188555050505b505050505050565b610c5e816105c3565b82525050565b6000602082019050610c796000830184610c55565b9291505056fea2646970667358221220fae36a60b17f039599550ab68799881ef4a3461259c5311c7141c6c534995e0f64736f6c63430008130033",
  "linkReferences": {},
  "deployedLinkReferences": {}
}